:020000021000EC
:1000000000000420613F0200993F0200A12202008B
:100010009D3F0200AD220200B3220200000000005A
:100020000000000000000000000000008DCD010075
:10003000A53F02000000000027CE010037CE0100DE
:10004000E57B020069F20100AB3F0200AB3F02001A
:10005000AB3F0200AB3F0200AB3F0200AB3F0200F0
:10006000AB3F0200AB3F0200AB3F0200AB3F0200E0
:10007000AB3F0200797D0200AB3F020081F201003C
:10008000AB3F0200AB3F0200AB3F0200AB3F0200C0
:10009000AB3F0200AB3F0200AB3F0200AB3F0200B0
:1000A000AB3F0200AB3F0200AB3F0200AB3F0200A0
:1000B000AB3F0200C9A601000000000000000000E4
:1000C000AB3F0200AB3F0200AB3F0200AB3F020080
:1000D000AB3F0200AB3F0200AB3F0200AB3F020070
:1000E000AB3F0200AB3F0200AB3F0200000000004C
:1000F00000000000AB3F020000000000AB3F020028
:1001000010B5054C237833B9044B13B10448AFF351
:1001100000800123237010BD20100020000000008B
:100120004CB6030008B5034B1BB103490348AFF3BA
:10013000008008BD00000000241000204CB6030021
:10014000154B002B08BF134B9D46A3F5803A0021A9
:100150008B460F461348144A121A1DF041F90F4BF3
:10016000002B00D098470E4B002B00D09847002062
:10017000002104000D000D48002802D00C4812F0A8
:100180002BFE1CF02FFC200029000EF0AFFE12F019
:1001900020FE00BF00000800000004200000000056
:1001A00049EE010020100020002E0120D92D020070
:1001B0000000000008B50A490A480AF031FA4FF475
:1001C0007A52012107480AF0A3F9142105480AF0E0
:1001D00029FA054A1368002BFCD0002008BD00BF97
:1001E000550201004088002040540020F8B5134F0C
:1001F0001E463B780C46154623B9FFF7DBFFE0B9F6
:1002000001233B700E4B0F4F21012A010024944221
:100210000DDA08194542C5F30C05C0F30C0058BFB0
:10022000684237F8100023F814000134EFE74FF468
:1002300000723260069A00201360F8BD3C54002022
:100240003C1000203C140020014B1868704700BF90
:100250004054002038B50B4C0B49256823680B48E7
:100260001B015A42C2F30C02C3F30C0358BF5342A2
:1002700010354FF4007201EB43010AF01FF92560BD
:1002800038BD00BF405400203C14002040880020AE
:100290002DE9F341604D9DF820801F462B780C46D8
:1002A0001646002B3AD101210D200CF003FD01214F
:1002B00016200CF0FFFC012117200CF0FBFC0121A3
:1002C00018200CF0F7FC012116200CF037FD01215D
:1002D00017200CF033FD012118200CF02FFD4FF4F6
:1002E000E1314E480BF00AF84FF496700CF086FCA2
:1002F0004B494A480CF019FB4A4948480CF015FB99
:10030000494946480CF011FB484944480CF00DFBA4
:10031000474942480CF016FB01232B70454DB8F1BC
:10032000000F44D044493D480CF0FFFA0A22214610
:100330003A480CF02EFB414938480CF0F6FA3146A9
:1003400036480CF0F2FA3E4934480CF0EEFA3846E2
:1003500018F06EFD2EA3D3E9002318F0FDFE042350
:10036000024600932D480B460CF0FEFB35492B4806
:100370000CF0DBFA0A22394628480CF039FB3249E6
:1003800026480CF0DFFA012116202C600CF0D6FC78
:10039000012117200CF0D2FC012118200CF0CEFC1A
:1003A0003378792B1DD1002117200CF0C7FC2B6866
:1003B0000BB3A4F6B834A34225DA00210D2029603E
:1003C0000CF0BCFC012116200CF0B8FC0121172018
:1003D0000CF0B4FC0121182002B0BDE8F0410CF093
:1003E000ADBC6E2B02D100211620DEE7752BDED1CD
:1003F00000211820D9E7154B1968013119600D202B
:1004000001F00101E8E702B0BDE8F081AFF3008040
:100410000000000000E06F40445400205C8E00208B
:100420000C1A0300281A0300421A03004E1A030094
:10043000591A0300485400205C1A0300621A030092
:100440006D1A03007D1A03005A1A03004C54002051
:10045000012303720023C0E90012194602689A4280
:1004600003DD4268D1540133F8E77047704700005C
:100470002DE9F0470F460168B1F5F56F86B00646E5
:1004800008D00A4638494FF4F563384600F0D0FCEE
:10049000012054E0142193FBF1F4037A002B46D0A1
:1004A000384600F0BBFA002849D1307231220E9B49
:1004B000D2F131051A6017D0282303FB02FE03FB9B
:1004C00005F00023716801EB030C28311944ACEBF3
:1004D000030818F90E800CF8018B8C45F7D12833EE
:1004E00083420EF1280EEDD1002A27DD303C4FF07B
:1004F00028082C44142308FB05F85C434FF000093E
:100500000DF10C0A302D19DC1E22CDF800A004AB31
:1005100024EAE4713846CDE90399FFF767FE049AAF
:10052000B2F5007F0EDA4FF400731049ADE792FB8D
:10053000F1F2A21A312AA8BF3122B8E7002006B092
:10054000BDE8F08705AB01937368039943440093BA
:100550003846282300F0A8FA08F1280814340028A7
:10056000EDD10135CEE700BF8B1A0300BC1A0300A2
:1005700070470022C0E900228260704703685B690F
:10058000184703689B691847202930B50ED0D0F86A
:10059000844000239C4209D05A018518AD698D42E0
:1005A00002D10432104430BD0133F3E70020FAE7F2
:1005B000704730B5D0F89C4000F1880200239C427F
:1005C0000AD012F8015B8D4204D100EB8300D0F811
:1005D0008C0030BD0133F2E70020FAE72DE9F0414D
:1005E000D0F884700446884605460026B7420FD0EE
:1005F000AB69202B09D14146E8691DF065F920B9A6
:1006000004EB46100430BDE8F08101362035EDE7FB
:100610000020F8E710B5A421044612F00DFE204694
:1006200010BD10B50421044612F006FE204610BD90
:10063000F0B587B0FFF708FE06AB002243F8082D9F
:10064000264C009305460346254F26483A68216804
:100650000068FFF70DFF264628B12349206800F007
:10066000E7FB07B0F0BD049B3D60002BF9D01F4BAA
:100670001F491B6842561A540130B0F5F56FF9D185
:100680001C4F386803F066FA044610B11A49306806
:10069000E5E70146386803F06DF90DF10F030193AA
:1006A00001460DF10E03154800932A4605AB00687C
:1006B00005948DF80E408DF80F4000F049FA08B10E
:1006C0000F49E4E79DF80F2000929DF80E30059A3F
:1006D00030682946FFF7DCFDC3E700BF707C0020CF
:1006E0006C7C00201C840020E31B0300208400207D
:1006F000747C002068540020FD1B0300645400201B
:100700000B1C030020292DE9F843054688461446B2
:10071000994609D1D0F8A00010B90120BDE8F883AE
:100720001F4900F085FBF8E703685B6998470746B7
:1007300040B1D5F8A0000028EFD04246194900F09A
:1007400077FBEAE7D5F884C0BCF1030F09D9D5F8E7
:10075000A0000028E1D004234246134900F068FBC2
:10076000DBE70FCC05EB4C1E0EF104060FC694E838
:100770000F0086E80F000CF10103CEF81880C5F8D1
:100780008430D5F89C30EA18384682F8888005EB2A
:1007900083020133C2F88C90C5F89C30BEE700BFDD
:1007A0000C1B0300511B0300A01B03002DE9F041AB
:1007B000794C2378BFF35B8FDD078CB00BD42046D8
:1007C00012F018FB38B1204612F036FB734A744918
:1007D000744812F0FCFA744C724B2360734B744FE4
:1007E0001A68D118D3583960CB1A1A88042A0CD940
:1007F0009A8812B18A58032A09D003236D4969489F
:1008000000F016FB0CB0BDE8F0810022F5E7DFF840
:100810000882694D98F80060BFF35B8F16F00106FF
:1008200012D1404612F0E6FA70B12368634A2A609A
:100830004046C5F88460C5E9276312F0FDFA574ABF
:100840005F49284612F0C3FA04A804F0D7FC5D4BB8
:10085000594804AA0421FFF755FF0028D2D104A863
:1008600005F080FB584B544804AA0921FFF74AFFC2
:100870000028C7D104A805F031FC544B4E4804AA07
:100880001921FFF73FFF0028BCD104A803F036FF71
:100890004F4B494804AA1621FFF734FF0028B1D175
:1008A0004C4E3378BFF35B8F13F0010517D1304600
:1008B00012F0A0FA98B10295236801934FF42053E7
:1008C00000933D4A3968444B444802F07FFF30466C
:1008D00012F0B2FA314A4249404812F078FA414DDA
:1008E0003E48286003F0A2F8014620B13E49206846
:1008F00000F09EFA86E7286802F0FEFF83681A6817
:10090000022A09D15A68012A06D19E68B6F5F56F08
:1009100002D10378092B01D03449E8E7344B42680F
:10092000344D1A602B78BFF35B8FD80710D428465C
:1009300012F060FA60B1304A30483146FFF788FD66
:10094000284612F079FA154A2D492C4812F03FFA40
:100950002C4B2A4A2C4D1A602B78BFF35B8FD9079A
:1009600012D4284612F046FA70B140F2DC5303224A
:10097000CDE9003225482168C8234FF47A7200F08F
:10098000C3F8284612F058FA214B204A1A60214B2E
:1009900000221A6036E700BF5C54002000020020ED
:1009A0007105010004020020707C0020F81C030087
:1009B000248400203C1C030028840020EC1A03003F
:1009C000B10501004D1001002911010011120100B3
:1009D000810F0100585400206C54002084860020B0
:1009E000F139010068540020831C03009C1C0300A3
:1009F0002084002060540020747C00201C8700208C
:100A00006D0401001C84002054540020CC8400207C
:100A1000645400206C7C00205054002030B51E220D
:100A200091B01423CDE900230A23069328230293CF
:100A3000134B0493134B0393134B0793134B0893DC
:100A4000134B0993134B0B93134B0C930124152356
:100A50000546CDE90D344FF47A5206230F490A9426
:100A600068460F9301F050F830B90D49284600F060
:100A7000DFF9204611B030BD0A4B00201C70F9E7A9
:100A80000000FA420060EA45CDCCCC3C8FC2753DF7
:100A9000CDCC4C3D3333733F0000A042288700206B
:100AA000C11C03000802002030B5154885B013466C
:100AB0000278089CEAB100220270099A009202A80A
:100AC0000A46104900F0C6FFDDE90205002240F2A7
:100AD0009A21954210D030F812301B0203F24D13C8
:100AE00093FBF1F3803B7F2BA8BF7F23A3540132FC
:100AF000EFE701F5A071E0E7002005B030BD00BFD1
:100B000008020020288700200372009BC360019B1D
:100B1000C0E90012C0E90431002200F1180300F519
:100B2000D4711A601A715A719A71DA7108338B4252
:100B3000F7D1064BC0F8B0314FF00043C0F8A82100
:100B4000C0F8AC21C0F8B431704700BFE01C03000E
:100B50002DE9F04F04468868066889B0022E994650
:100B60009046DDF84CB0836804D14568012D01D171
:100B7000042B09D0009604227A49206800F058F925
:100B8000012009B0BDE8F08F0B78092B05D01A467B
:100B90007549206800F04CF9F2E7D4F8AC61D4F85C
:100BA000A8714EB104EBC7039B69934204DD6F4902
:100BB000206800F03DF9E3E74868002304ADEA1837
:100BC000C15C11710133042BF9D1F1193222CDF836
:100BD000108091FBF2F302FB131395E8030004EB82
:100BE000C303183383E80300312EC2BF013797FBDC
:100BF000F2F302FB13776268CEBFC4F8A871013626
:100C0000C4F8AC61A8EB02003221D4F8A871D4F882
:100C1000AC6104EBC70C1EB1DCF8183098420CDC58
:100C20002369B34216DDD4F8B031C9F80030129B05
:100C3000002018708BF80000A3E7002EEBDD0137D1
:100C4000013E97FBF1F301FB1377C4F8A871C4F8D8
:100C5000AC61DAE704EBC7014046D1F818C0C11710
:100C6000B8EB0C004FF0040361EBEC7192FBF3F274
:100C7000D317904271EB0303D5DB00224FF0320E05
:100C80000DF1080CB2421FDAB91891FBFEF30EFB0E
:100C9000131304EBC303183393E803008CE8030039
:100CA00000230CEB030191F90400803032B945F8C0
:100CB00023000133042BF4D10132E3E755F823106C
:100CC000014445F82310F4E74FF0000AF71755F8F0
:100CD0002A0032463B46C11718F05CFC45F82A0052
:100CE0000AF1010ABAF1040FF1D100231E461A4697
:100CF00055F82310B142C8BF1A4603F10103C8BF1B
:100D00000E46042BF4D11A4BD4F8B01153F82250EC
:100D10001B6899421FD0D4F8B421B2F1004F1AD009
:100D2000A8EB0202D317207AB04218DAA94205D103
:100D3000E068C117904271EB030310DAC4F8B051B8
:100D4000C4F8B48101238BF80030129BC9F800501D
:100D500000201E7015E76FF000420023E3E7002338
:100D6000F1E700BF1066030074660300B666030077
:100D70000C020020044B10B504460360406C08B11F
:100D800009F07AFB204610BD5867030010B50446F1
:100D9000FFF7F0FF2046682112F04EFA204610BD02
:100DA000104A70B5802102600022C0E91812426426
:100DB00008210F220346C0E901120E2009220A4D24
:100DC000C3E9030203F1140405F120062A4603CA0D
:100DD000B24220606160154604F10804F6D118465D
:100DE00070BD00BF586703003067030010B5054CA5
:100DF0002046FFF7D5FF2046034A0449BDE81040CE
:100E000011F0E5BFB087002000020020750D010041
:100E100001308000704700000D289ABF024B53F844
:100E200020000248704700BF606703009867030016
:100E30000EB403B503AA036852F8041B01929B6821
:100E4000984702B05DF804EB03B070470CB407B5E7
:100E500004AA036852F8041B01929B68984703B0E8
:100E60005DF804EB02B07047006803685B681847E0
:100E70000138C0B204289ABF014B185C00207047AB
:100E8000FE67030020B101280CBF0220002070473C
:100E90000120704738B515461A4628B90B4928462F
:100EA000FFF7C6FF012038BD0468082C09D80439B3
:100EB00000EB8404A04206D050F8043F41F8043F00
:100EC000F8E70349EBE70020EDE700BFB068030057
:100ED000DE6803000368C01A03888B428CBF405A47
:100EE0000020704710B50C210446FFF7F3FF2318CC
:100EF00008B12058184410BD08B5034610460C2B05
:100F000024D8DFE803F00B071113171B1D0F1F1563
:100F10000D2119000A230B70002008BD0123FAE7F8
:100F20000B23F8E70723F6E70223F4E70323F2E7AE
:100F30000923F0E70423EEE70D23ECE70523EAE7B6
:100F40000623E8E70823E6E70C23E4E700220A701B
:100F50001A460249FFF76CFF0120DEE71F69030014
:100F600038B505461446FFF7B5FF00B12C5C2046A6
:100F700038BD08B500220A21FFF7F2FF08BD0000C6
:100F80002DE9FF411F4613681546064688461B6833
:100F90000422242128469847044618B1242200211F
:100FA0001CF01EFACDE90254A4B91B4B01934FF477
:100FB000BE630093194A1A4B41464046FFF746FF6D
:100FC0000124039911B102A8FFF74EFF204604B097
:100FD000BDE8F0813046FFF7CCFF112817D130462D
:100FE000FFF780FF054690B10421FFF773FF2E182D
:100FF00068B12D5870190AD021460A4B4246FFF7B6
:1010000049FF04460028DCD1039B72591A62039BF6
:101010003B6000240394D4E7966803007F680300D4
:1010200003680300A868030038B505461446FFF7B7
:1010300051FF00B12C58204638BD38B5054614463E
:10104000FFF748FF00B12C56204638BD2DE9FF417F
:101050001F4613681546064688461B6804221C2155
:1010600028469847044618B11C2200211CF0B8F904
:10107000CDE90254A4B9294B019340F22C430093CB
:10108000274A284B41464046FFF7E0FE01240399DA
:1010900011B102A8FFF7E8FE204604B0BDE8F081D8
:1010A0003046FFF766FF022833D13046FFF71AFFBC
:1010B000054670B300220421FFF7BFFFC0B2FFF75F
:1010C000E1FE0022207006212846FFF7ADFF002236
:1010D000606008212846FFF7A7FF0022A0600A21D0
:1010E0002846FFF7A1FF00220C21E0602846FFF709
:1010F000A4FFC0B2FFF7BCFE012220740E212846D7
:10110000FFF792FF0122606110212846FFF78CFF54
:10111000A06100233C6003931C46B8E79668030077
:101120007F680300036803002DE9F04398461368C5
:10113000154685B081460E461B68012204212846CB
:101140009847044608B100230360CDE90254A4B9CE
:10115000264B019340F297430093254A254B314695
:101160003046FFF773FE0124039911B102A8FFF77F
:101170007BFE204605B0BDE8F0834846FFF7F9FE48
:10118000082807462CD14846FFF7ACFE054638B381
:1011900000220421FFF751FFC0B2FFF769FE0022D1
:1011A000207039462846FFF7DBFE003018BF0120CB
:1011B000A07000220A212846FFF7D2FE003018BF97
:1011C0000120E070002206212846FFF736FF30B1EB
:1011D000012804D008493046FFF72AFEC3E76070B3
:1011E0000023C8F8004003931C46BDE7966803003F
:1011F0007F680300036803004369030038B50446B1
:101200001546FFF767FE08B104442568284638BD37
:101210002DE9FF411F4613681546042206468846FD
:101220001B68114628469847044608B1002303600E
:10123000CDE90254A4B9144B019340F279630093B1
:10124000124A134B41464046FFF700FE0124039922
:1012500011B102A8FFF708FE204604B0BDE8F081F6
:101260003046FFF786FE092808D13046FFF73AFEE0
:1012700020B100220421FFF7C1FF206000233C6061
:1012800003931C46E3E700BF966803007F680300F2
:10129000036803002DE9F843984605460023C8F883
:1012A000003091460F4609F0CEF82B68EB1A06463F
:1012B0001A88082A0CD9198951B16C58832E09D97A
:1012C00032461C494846FFF7B3FD0120BDE8F883CC
:1012D0000124F3E7202E11D03B6822461B683146DB
:1012E00038469847C8F8000008BB134A134952F81B
:1012F000262023464846FFF79BFDE6E7062A05D948
:10130000DB88E91813B1EB58C91804D10C494846D9
:10131000FFF78EFDD9E73B6822465B68043138460B
:101320009847C8F80000B0FA80F04009CEE70020E6
:10133000CCE700BF846B030070690300D86B030027
:101340007A6C0300F0B4D0E902570E46016800231E
:10135000BB4206D10022AB420AD221F8132001334E
:10136000F9E736F81340944021F813400133EFE7D2
:1013700042680069F0BC08F0C1BF7047826810B5D0
:1013800004465200002100681CF02AF8A268606838
:101390005208013292000021BDE810401CF020B834
:1013A00001232DE9F3410546C1608360D5F808802B
:1013B00088454FEA480001D2A860F7E71BF0C4FB5C
:1013C0000446286048B9254B25481B68D9681AF09F
:1013D0004DFE204602B0BDE8F08128F00100023049
:1013E00080001BF0B1FB0446686020B91B4B1D4810
:1013F0001B68D968EBE702AF002647F8046D324658
:101400003B463146404608F0DFFE044638B1134BF8
:1014100015481B68D9681AF029FE3446D9E7DDF86B
:10142000048040461BF090FB0646286120B90B4B18
:101430000E481B68D968EEE73B460246C5F81480A3
:101440002146A86808F0C0FE2B69834204D0034BF4
:1014500007481B68D968BAE70124BAE710060020DC
:10146000D3710300F5710300187203003472030096
:101470005872030030B5D0E901356FF003009C00CD
:1014800000FB034021440244AB4201F1040100DBB4
:1014900030BD31F9024C31F9040C644300FB0040CB
:1014A00042F823000133EFE72DE9F04F87B0036ADC
:1014B0000193D0E903CE4369039303680293059136
:1014C00000234FF000084FF00009029A9A4202DA16
:1014D00007B0BDE8F08F059A3CF913503EF9134070
:1014E00002EB85058269670002EB070A039AC4696B
:1014F00032F9132004923C4446464F4600224FF0F6
:1015000000084FF0000904998A4207DB019C31462C
:101510003A46E4E8021201330194D6E73AF912B0F0
:1015200055F82210CBFB016734F912B00132CBFB26
:101530000189E8E72DE9F74F0368006A01938A46BD
:1015400000F1080E00214FF0010C019B994202DBD3
:1015500003B0BDE8F08FFEE802454FF00009A84651
:1015600058EA09032AD1234634B3B4FA84F242F08C
:101570000102C2F11F020CFA02F5521001324C4670
:1015800012F1FF320DD29C4204D24FF6FF739C42FF
:1015900018BF0134A2B222FA0AF240F82120013128
:1015A000D3E704EB050898454FEA54049CBF64193F
:1015B000A3EB0803AD08E3E72246ECE725B3B5FA51
:1015C00085FB4BF0010BCBF13F0BABF12002CBF1D4
:1015D00020030CFA02F72CFA03F30CFA0BF64FEA8D
:1015E0006B0B1F430BF1010B002200231BF1FF3B90
:1015F0000FD2AB4208BFA242CDD2002B08BFB2F13E
:10160000FF3FC8D00132C6E7B4FA84FB0BF1200BD0
:10161000D7E712EB060843EB07095B084FEA3202F3
:101620004D4508BF444505D3B4EB080465EB0905F7
:1016300092197B414FEA960848EA87784FEA970962
:1016400046464F46D2E70268006A0132D2000021C6
:101650001BF0C6BE0000000008B510EE100A17F01F
:10166000F9FB00220A4B17F077FD18F099FA06A350
:10167000D3E9002317F046FC17F03CFF00EE100AF8
:1016800008BD00BFAFF3008000000000009C914047
:1016900000E085402DE9F04F2DED068B09EE103A64
:1016A00003680B60013389B04FEA43088246404625
:1016B0000C46154601931BF047FAE0600390404644
:1016C0001BF042FA2061834640461BF03DFA019B25
:1016D00060618146D8001BF037FA019B20629800B8
:1016E0001BF032FA064640461BF02EFA07464046EB
:1016F0001BF02AFA039B029043B1BBF1000F05D007
:10170000B9F1000F02D00EB107B1A0B930461BF0FD
:1017100023FA38461BF020FA02981BF01DFAC04B42
:10172000C0481B68D9681AF0A1FC002009B0BDECC4
:10173000068BBDE8F08F9AED020ADAED018AB5EE6C
:10174000C00AF1EE10FA05DAB74BB84A2521B848BD
:101750001AF078F9B4EEE80AF1EE10FA03D4B54BBA
:10176000B24A2621F3E7FFF777FFB0EE408AB0EEEA
:10177000680AFFF771FFDDED017A30EE480AB8EE36
:10178000E77AB346C0EE077A3246002301999942C0
:101790004FDC284617F04CFB0022A74B17F0B2FB9A
:1017A000F8EEC97AB7EE007A77EEC77A804617EE80
:1017B000900A894617F04EFB02460B4640464946C2
:1017C00017F0CAFC17F096FEDAED027A08EE900ADE
:1017D000C7EEA87A0025A94617EE900A17F03AFB43
:1017E0000022964B17F0D8F917F03CFEA560804612
:1017F00060600395019B9D425CDB022148461AF024
:101800003FF90221A061054648461AF039F9E06126
:101810000DB1002870D130461BF09EF938461BF000
:101820009BF902981BF098F97D4B85481B68D96895
:1018300079E7013307EE103AB8EEC77AF0EE486A5E
:10184000E7EE876AE2EC016AA0E7013107EE901A41
:10185000B8EEE70A049120EE280AFFF7FDFEDBED63
:10186000007A0499B4EEE70AF1EE10FAEDD9D4E962
:1018700003E2029B27F81580A1EB080023F815006E
:10188000D4F814C002EB4503E0B92EF8150022F895
:1018900015004FF004002CF81500039828B99A425F
:1018A0000AD1012309F10409039301350BF1040B5B
:1018B00088469FE74146C9E7B2F90000043022F8A4
:1018C000020BECE708F00103B8F1000FB8BF5B4270
:1018D0000344013B042093FBF0F301339B000220FF
:1018E00098FBF0F84FEA48082EF8158022F815907A
:1018F0002CF815309944D8E79AED020AFFF7ACFEB0
:10190000A6F10409F0EE40AA0025019B9D4212DBDE
:1019100030461BF021F938461BF01EF902981BF0E7
:101920001BF9A36819EE102A934276DB3C4B45481D
:101930001B68D968F7E6029B37F915B033F9153003
:101940000393E36833F91530ABEB03030593236985
:1019500033F915300493BDB1D9ED009A4FF000086A
:101960000BEB080300EE103A039B98450FDBA268CF
:10197000002BACBF5B440BF100039342C8BFA360D4
:10198000013509F10409C0E7F0EE6A9AE6E7B8EE1E
:10199000C00A99ED018A20EE280AFFF75DFE38EEB5
:1019A000400A38EE698ADFED287A80EE08AADDE980
:1019B000043203EB020AE3690693C24408F101080A
:1019C0006AEE277A17EE900A17F044FA00221A4BB3
:1019D00017F0E2F818F030F8A369079317F042FD0A
:1019E000079B23F81A001AEE100A17F033FA024682
:1019F0000B460020154917F0CDF80022144B17F0C4
:101A000081FA0D4B002217F0C7F818F015F817F0FF
:101A100029FD069B23F81A00A2E7012086E600BFF5
:101A20001006002084720300A8720300D473030020
:101A3000C67203004F7303000000E03F0000F83F50
:101A40007D730300A6730300000080450000F03F93
:101A50000000B0402DE9F0410C46064611462046F4
:101A60001A46069B00F0B8FA20B9C6E900003046D5
:101A7000BDE8F081B4F918506169B5FA85F5113DFA
:101A80002A4604F11C00FFF75DFCD4F8208004F125
:101A90003407424641463846FFF7ECFC414638469B
:101AA000FFF702FD29463846FFF744FD014605468B
:101AB00004F1580000F00EF9E36E23B1294604F159
:101AC0006C0000F0AEF9636A626BB3FA83F3C3F1A2
:101AD0001903294604F1800000F098F8636BC6E909
:101AE0000003C4E710B5044600F0B9FA04F11C0085
:101AF000FFF744FC04F13400FFF7A5FD04F15800A2
:101B0000BDE8104000F01DB92DE9F3410C46064632
:101B100017460021882220461BF062FC3A462146E7
:101B2000304600F0B1FA054648B9314B31481B68E0
:101B3000D9681AF09BFA284602B0BDE8F08104F19A
:101B40001C0821684046FFF72BFC054620B9284BAE
:101B500029481B68D968ECE74046FFF70EFC636A2A
:101B60005B0801333A4604F1340106F10800FFF73F
:101B700091FD054620B91E4B20481B68D968D8E75F
:101B8000626B04F1580106F1180000F0E1F8054617
:101B900020B9174B1A481B68D968CAE7636AA26E56
:101BA000B3FA83F3C3F119030193B4F858300093E7
:101BB00004F16C01636B06F1280000F099F9054609
:101BC00020B90B4B0F481B68D968B2E704F18001BC
:101BD00006F1380000F078F8054620B9044B0A48B1
:101BE0001B68D968A5E72046FFF77CFF0125A2E71F
:101BF00010060020EF730300107403002E7403001E
:101C0000537403007D740300A97403002DE9F74F9A
:101C100044682C4F019400264BF2721CC3F1000E55
:101C20004FF6FF78964203DB084603B0BDE8F08F1D
:101C3000056851F82640002D3DD0002BB4BF24FA92
:101C40000EF49C40012C06D8002434E0A5F11009C4
:101C500044FA09F40FE0B4FA84F5C5F11F054FF01A
:101C6000010909FA05F90F2DA4EB0904EEDCC5F111
:101C7000100904FA09F44FEA642909F1010A37F856
:101C800019B037F81AA0A4EB4929AAEB0B0A5C4457
:101C900009FB0AF904EB294909EB05494FF4004413
:101CA0000025ECFB0945240C44EA0544019DAC40A9
:101CB00004F50044240C444528BF444621F816404E
:101CC0000136AFE7D074030003680B6043684B60D4
:101CD000012070472DE9F041D0F80CC004390022F2
:101CE000944501DCBDE8F081D307076954BF8688BD
:101CF000C68857F82240D0F800E04B68C6F580450A
:101D000003FA0EF3A5FB0445E6FB03454FEA9438BE
:101D100048EA854847F82280068951F8045F434520
:101D2000A6FB056794BFDB1AA3EB0803B50B45EAD6
:101D3000874523FA0EF3AB422CBF0B600D600132D6
:101D4000CEE7C2680069920000211BF049BB000089
:101D500090ED027ADFED186AD0ED037A27EE267A4D
:101D600038B5BCEEC77A0D4617EE103A90ED017A01
:101D70000168EB8027EE267A67EEA67ABCEEC77A7A
:101D8000FCEEE77A17EE103AAB8017EE903A296036
:101D90002B81EA600421104619F072FE0446286186
:101DA00038B9064B06481B68D9681AF05FF9204617
:101DB00038BD0120FCE700BF00008046100600206F
:101DC000D4750300022830B502D831F9100030BDB7
:101DD000B0FA80F3C3F12004E2000C3A0A2C01EBC4
:101DE0000205D5BF153BC3F115039840D840AB8819
:101DF000C0F3090013FB00F4B5F902305B0103EBFB
:101E0000641358438B5E00F5804003EBE03000B272
:101E1000DDE7B0F5005F39BF4043000D8009403871
:101E200070472DE9F041D0F8088005460F460024A0
:101E3000A04501DCBDE8F0816B68E96853F8240037
:101E4000FFF7C0FF57F82430A0FB03012B69C3F153
:101E50002006A3F1200201FA06F620FA03F3334329
:101E600021FA02F243EA0200FFF7D3FF47F8240009
:101E70000134DDE710B5C368012404FA03F307EE6B
:101E8000903A2DED028BB8EE678A07EE902A04FA9D
:101E900001F1F8EE676A07EE901AF8EE677A436888
:101EA00086EEA77AD0ED027A77EE277A83F00041AA
:101EB00017EE900A18F0D4F907EE900A9FED0B7A0E
:101EC00068EE277ABDEC028BF4EEC77AF1EE10FAD9
:101ED000DBBFB6EE007A77EE877A47F6FF70FDEE4D
:101EE000E77ADCBF17EE903A18B210BD00FEFF464D
:101EF0002DE9F74F0C4601680D9F21600646002929
:101F000063D0C4E90123FA201AF01EFE0546E06002
:101F100048B92F4B2F481B68D9681AF0A7F82846F4
:101F200003B0BDE8F08FF368DB1B0C3B2361BDF809
:101F30003030DF1B002239463046FFF79BFF01227D
:101F4000288039463046E568FFF794FFE3686880EB
:101F50000C3B0225E3604FF0120A2B4605F1FF39D6
:101F60000122202D02FA09F23946304614BF03FA45
:101F700009F94FF0FF39019302EB5208FFF77AFF9E
:101F80004246834639463046FFF774FF4A4680464C
:101F900039463046FFF76EFFE268019B22F835B004
:101FA000A0EB0B00A8EB0B08C0EB880802EB0A01C2
:101FB000013522F80A80212DA0EB0808A1F8028043
:101FC0000AF1080ACAD10C32E2600120A8E700BF7A
:101FD00010060020F5750300F8B504460668006990
:101FE000351A95421F46E36828BF15466A0003EB81
:101FF00040001BF0F7F83D60236922681D449542BC
:1020000025612AD30025D4F804C0E068D4F814E090
:102010002946B1420DDBA168521A520000EB410182
:102020001BF07AF92369A26825839B1A236101209A
:10203000F8BD3CF8117030F8113013FB07F31B1397
:102040001FB2002FB8BF5B422EF81170B8BF1FB28D
:10205000BD42B8BF3D460131DBE70020E8E702683A
:1020600010B5044652000021C0681BF0B9F922687F
:102070006069520000211BF0B3F900232361238320
:1020800010BD0000000000002DE9F04F0568436816
:102090002DED028B0E4655434FF47A71B5FBF1F5E9
:1020A0004FEA450A5A4383B0B2FBF1F23560B260A1
:1020B00050461AF049FD0446706058B93C4B3D4803
:1020C0001B68D96819F0D2FF204603B0BDEC028B23
:1020D000BDE8F08F07EE905AF8EEE77ADFF8E4906B
:1020E0009FED358A17EE900A16F0B4FE02460B46B5
:1020F0002DA1D1E9000117F02FF817F0FBF9002707
:1021000083464FF00008AF420DD1002333615046A3
:102110001AF01AFD0446F060002838D1244B2748F5
:102120001B68D968CEE7384616F082FE42464B4619
:1021300016F032FDCDE90001584616F08BFE02463E
:102140000B46DDE9000116F0DDFE17F02DFC4246DE
:102150004B4616F0D7FE02460B464046494616F05F
:1021600019FD17F0C7F907EE900A67EE887A17EEA7
:10217000900A16F06FFE42464B4616F00DFD17F022
:102180005BFC17F06FF924F817000137BBE75046E6
:102190001AF0DAFC0446706120B9054B08481B6848
:1021A000D9688FE701248FE7182D4454FB2119408B
:1021B0001006002012760300000080453A760300E6
:1021C0005B7603000000E03FF8B515461C46002290
:1021D000002306460F4617F0FDF818B100232B60C8
:1021E0002360F8BD22463046394617F0A5FC002290
:1021F000104B16F087FE17F0F5FE17F033FA4FF08C
:1022000000420023824273EB010601DA19F012FC4E
:10221000994201BF9042236801332360236808BFBD
:102220004FF080401F33BEBF002300202360286092
:10223000D7E700BF0000E041F8B515461C46002274
:10224000084B06460F4617F0EDF808B919F0F2FBF7
:1022500023462A4630463946FFF7B6FF2368002B4F
:10226000F4DBF8BD0000F03F2DE9F14F06460A9877
:102270009946C0F11F00012303FA00F00F46904673
:1022800016F0D6FD424604460D464B4630463946CA
:1022900016F038FE02460B462046294616F032FE5E
:1022A0000BA3D3E90023DDE90BAB04460D4617F081
:1022B000B9F810B106A5D5E900455B46524620465F
:1022C000294601B0BDE8F04FFFF7B6BFAFF300807D
:1022D0000000C0FFFFFFDF412DE9F84301248146E4
:1022E00004FA00F001388846154616F0A1FD0646AE
:1022F000A5EB09000F46C0F12003A0F1200124FA4C
:1023000003F304FA01F104FA00F0194316F0CCFDCE
:1023100002460B463046394616F0F4FDC8F120035C
:102320000F46A8F1200124FA03F304FA01F106464E
:10233000194304FA08F016F0B7FD02460B46304682
:10234000394616F009FF17F077FB17F08BF8BDE858
:10235000F883836810B41BB9036D5DF8044B18470C
:1023600003EB81105DF8044B7047D0ED007AC0EEAE
:10237000277A10B5044617EE900A16F06BFD17F099
:1023800031FE17F0B7F807EE900AFDEEE77A6368C2
:1023900017EE900A184410BD002804DB884202DAC8
:1023A00052F8200070474FF0FF3070470B6810B5AF
:1023B0001968044610461A1DFFF7EEFF011E04DBE4
:1023C0002046BDE81040FFF7C4BF002010BD4B6899
:1023D00010B51968044610461A1DFFF7DDFF011EEF
:1023E00004DB2046BDE81040FFF7B3BF002010BD5E
:1023F000FFF7DCBFD1ED037A92ED037A67EE877ABF
:1024000073B5F5EEC07AF1EE10FA1E460ADA0F4BFC
:10241000009344690E4A0F494FF4A173A04701206D
:1024200002B070BD17EE900A16F014FD0446F06875
:102430000D4616F00FFD0B4602462946204616F0C3
:102440008BFE069BC3E900010020E9E7ED7603005F
:102450007D7603007F6803002DE9F74F0446C868C6
:1024600090469A460D4616F0F5FC0646D8F80C0044
:102470000F4616F0EFFC02460B463046394616F082
:1024800041FDDDE90C9B06460F46BAF1000F1CD05A
:10249000DAF80C0016F0DEFC02460B4630463946F0
:1024A00016F078FB0646D9F80C0021F0004716F02C
:1024B000D1FC02460B463046394616F04DFE13A3BA
:1024C000D3E9002316F09AFF50B14B464246294605
:1024D0002046CDF830B003B0BDE8F04FFFF78ABF1B
:1024E000074B009320466569064A074940F23513B9
:1024F000A847012003B0BDE8F08F00BFAFF3008014
:10250000067703007D7603007F6803007B14AE47E7
:10251000E17A943FF0B51F46137885B0032B0A9EED
:102520000ED0092B1FD0072B21D0264B00934469D6
:10253000254A264940F27513A047012005B0F0BD99
:10254000FF2400251369D26802920129039312D156
:102550009FED1F0A02A8FFF708FF8542ACBF3D6050
:10256000386034601BE07F246FF07F05EAE747F6B0
:10257000FF74184DE6E7032913D19FED150A02A851
:10258000FFF7F3FEB1EE080A8542ACBF3D6038604C
:1025900002A8FFF7EAFE8442D4BF34603060002016
:1025A000CCE702290BD1BFEE000A02A8FFF7DDFE3F
:1025B000B7EE000A8542ACBF3D603860E8E73D6099
:1025C000CFE700BF287703007D7603007F68030014
:1025D000000000000080FFFF2DE9F04F91F83090DF
:1025E0008FB0B9F1010F04460D4617469B46DDF842
:1025F00080800FD001266D4B0193CDE902966C4B84
:1026000000934469D2236B4A6B49A04701200FB065
:10261000BDE8F08F92F83060012E08D0634B019333
:10262000CDE90269654B00934469D423EBE7526B13
:102630003AB9634B00934469DE235E4A6149A0477F
:10264000E4E7D2F80090B9F1000F04D15E4B00939B
:102650004469DF23F1E7D9F800A0BAF1010F35DDB5
:102660000B78092B06D0072B04D0584B00934469F4
:10267000E423E2E73B78092B0DD00922CDE90232B1
:10268000534B0193534B00936569E523494A4A49EB
:102690002046A847BAE7D04508D04F4B0193CDE973
:1026A00002A84E4B00936569E623EFE7BB6892688A
:1026B00003EB82035B68984508D0CDE90283484B61
:1026C0000193454B00936569E923DFE7D5ED037A74
:1026D000189BCDED057AD3ED037A09F10403CDED16
:1026E000067A07930026B0452EDDBAF1010FC9BF67
:1026F000079BD9F8040003EB8603186816F0AAFBC1
:10270000CDE90801059816F0A5FB02460B46DDE968
:10271000080116F0F7FBCDE90801069816F09AFBC0
:1027200002460B46DDE9080116F016FD0CAB0BAABC
:10273000FFF74AFD1E9A0B9B42F826301F9A0C9B0E
:1027400042F826300136CEE72B78032B1AD10EAB98
:102750000020002163E902010193189B00933A468F
:102760005B4629462046FFF777FE00287FF44FAFEF
:102770000BAB1A9ADDE90C01FFF726FD0B9B1B9AA8
:102780005B4213602B78092B03D003F0FB03032B70
:1027900009D1199B189A19781D9B009320461C9B00
:1027A000FFF7B8FE33E7002031E700BF48770300AA
:1027B000627703007D7603002E7703007B770300AA
:1027C000957703007F680300A9770300C4770300AF
:1027D000FE7703000A7803001778030024780300CB
:1027E000457803004B1E1844B0FBF1F04843704796
:1027F000B0FBF1F04843704701380844B0FBF1F0FA
:102800004843704701380C2814D8DFE800F0070768
:102810000D0F130D0B0F0D1313110F0004230B607D
:10282000002070470223FAE70123F8E70823F6E7C0
:102830001023F4E7012070472DE9F3410D460168AC
:10284000411A16460A88042A2ED98C8800EB040CFB
:102850008CB104591CEB04070DD05CF804804FF0D8
:10286000000C0124C44507D057F804EF0CF1010C0B
:102870000EFB04F4F6E70124062A16D9C988B1B183
:1028800040561A460DF10701C0B2FEF735FB40B9BC
:1028900031469DF80700FFF7B5FF10B933685C4378
:1028A0002C6002B0BDE8F08101240020E9E7084671
:1028B000E7E7436873B50C4653B153F8046B002146
:1028C00001228E4205DD53F8045B01316A43F8E7CB
:1028D000012201A9007AFFF795FF10B9019B5A4325
:1028E000226002B070BD40680368DB68184770471B
:1028F0007047406803681022DB6818474068036827
:102900005B691847406803680422DB684021184768
:10291000704710B51821044610F08EFC204610BDFB
:1029200010B50821044610F087FC204610BD03694D
:1029300010B50C46114633B1406803680422DB68C9
:10294000890098472060002010BD10B5082104467A
:10295000FEF7C0FA231808B12058184410BD10B56E
:102960000A210446FEF7B6FA231808B12058184485
:1029700010BD10B506210446FEF7ACFA00B1205692
:10298000C0B210BD10B50E210446FEF7A3FA00B187
:10299000205C003018BF012010BD10B50421044692
:1029A000FEF798FA231808B12058184410BD00000B
:1029B00038B503680D46DB680422182104469847A1
:1029C00038B1044B8560C0E900340023C0E904330A
:1029D000037338BDA47E030070B50E461021154662
:1029E0000446FFF7FFFEA2190146121A284601F01D
:1029F0000BFB2946BDE87040FFF7DABF38B50C463F
:102A0000054608212046FEF765FA211870B12258C4
:102A10008B188A58012A05D00549A868FEF708FADC
:102A2000002038BD181D5B681844FAE70368FFDE14
:102A3000CE7803002DE9F3411F46037B0446884608
:102A400016463BB913498068FEF7F2F9012002B03F
:102A5000BDE8F081FFF7D2FF236822695B6B054672
:102A60003946204698470028F1D13A6823680092F9
:102A70001F6B2A46334641462046B8470028E6D118
:102A8000236832465B6A2946204698470028DED1F3
:102A90002073DCE74C7903002DE9F74F04461F460D
:102AA00089461646FFF7AAFF236883469D6A324689
:102AB0003B46494620464FF00008A847CDE900783C
:102AC00023680546D3F82CA05A46034649462046BB
:102AD000D04740B10749A068FEF7AAF94546284605
:102AE00003B0BDE8F08F002EF9D00C237B43F358E0
:102AF0006B60F4E7757C03002DE9F34705468946D2
:102B00001F461646FFF77AFF82466868036804226C
:102B10001B69402198470122CDE900722B680446C9
:102B2000D3F82C805246034649462846C04740B158
:102B30000749A868FEF77CF90024204602B0BDE8EA
:102B4000F087002EF9D00C237B43F3586360F4E741
:102B50005F7B0300002303614068036804229B68D5
:102B6000602118472DE9F0471F46037BDDF82090D0
:102B700005460E469046012433B113498068FEF79E
:102B800057F92046BDE8F0870473FFF7E3FF0028FC
:102B9000F8D12B684A461B6A3146284698470028D8
:102BA000F0D12B683A469B69314628469847002861
:102BB000E8D12B68DC693B68424631462846A4468A
:102BC000BDE8F047604700BFF778030008B54068EC
:102BD00001F03EFA0421BDE80840FFF703BE000003
:102BE0002DE9F041044688461746FFF7EFFF002322
:102BF00025691E469D4207D000EBC302013352688F
:102C0000013208BF0136F5E70B2E07D90C220A491D
:102C1000A068FEF70DF90120BDE8F08100EBC503C7
:102C20004FF0FF3240F835805A603D602369013330
:102C300023610020F0E700BF097C0300036870B542
:102C40009B6804460D4698472046FFF7BFFF216961
:102C50000022914206D04368013308BF456001322B
:102C60000830F6E7606803680C319B680422C900ED
:102C7000BDE870401847000008B50368994206D3C4
:102C8000054B064A06484FF4837118F0DBFE00EB53
:102C9000C100D0E9010108BDF67D03009082030068
:102CA000017E030008B50368994206D3054B064A26
:102CB00006484FF4837118F0C5FE00EB81004068B0
:102CC00008BD00BFF67D0300C2810300017E030042
:102CD00008B50368994206D3064B074A07484FF4E4
:102CE000837118F0AFFE043000EB810250F8210030
:102CF000104408BDF67D0300D27F0300017E03006F
:102D00002DE9F74305468846164600244FF00C0986
:102D10004046FFF742FE03689C421FD22146FFF760
:102D2000D7FFFFF72FFEB8B109FB04F701A9F0198F
:102D3000FFF7BFFD68B96868019903681022DB6876
:102D40009847F05140B9019A0549A868FEF770F814
:102D5000012003B0BDE8F0830134D9E70020F8E793
:102D6000A078030008B50368994206D3064B074ACA
:102D700007484FF4837118F065FE043000EB8102C0
:102D800050F82100104408BDF67D0300C880030000
:102D9000017E030008B50368994206D3064B074A33
:102DA00007484FF4837118F04DFE043000EB8102A8
:102DB00050F82100104408BDF67D0300DC7E0300BE
:102DC000017E030010B50446FEF784F8231808B10D
:102DD0002058184410BD38B50C4608210546FEF7AA
:102DE00079F868B129582046FFF7D4FF034648B167
:102DF0000421FFF7E7FF10B103681BB1043038BDB1
:102E00000146F0E71846FAE710B50446FEF762F807
:102E1000231808B12058184410BD00002DE9F743CD
:102E20000B9C9046054640220E46204600211F4638
:102E30001AF0D6FA4046FFF79CFD0A9A2146FEF7A3
:102E40005BF8002854D14046FFF79CFD394684F8D2
:102E50002D004046FFF7BFFF606000284BD10223E2
:102E6000237501AA0A9B04F118014046FFF7E4FC10
:102E700000283DD104214046FFF7C6FF00283CD181
:102E80003E4BA3600C214046FEF724F808EB0007F8
:102E900070B358F800003F18384629D0FFF755FDA9
:102EA0008046002868D0006810B33846FFF757FD09
:102EB000F0B10068E0B1D8F80430E3603846FFF7BD
:102EC0004EFD0021FFF7D8FE20613846FFF73DFD9B
:102ED0002B68D0F8008096B11B6904220C2128468B
:102EE00098470646B8B926490A98FDF7A1FF012080
:102EF00003B0BDE8F0830123B2E7A060C2E7DB685E
:102F000004220C212846984706460028EBD02B685F
:102F1000D3F80C9002E02B68D3F810904046FDF7F0
:102F200077FF042201462846C8470546706008B965
:102F30001449D9E73846FFF708FD306045F8048B9F
:102F40004FF00009C8450ADD3846FFF708FD49463D
:102F5000FFF792FE45F8290009F10109F2E7102177
:102F60003846FDF7B7FF00B13858B060012384F848
:102F7000303066630020BBE7BAE700BF8478030007
:102F80009A7D0300C87D03002DE9F041069C26468A
:102F90000D460021C4E9001146F8081F984628464E
:102FA0001746FFF7E6FC31464246FDF7A5FF064609
:102FB00058B939462846FFF70EFF042120602846FD
:102FC000FFF722FF20B9034B63603046BDE8F08174
:102FD0006060FAE78478030010B50446FDF77AFFD5
:102FE000231808B12058184410BD00002DE9F04FF7
:102FF00087B00E461C4693460746FFF7FFFC0621A6
:1030000000903046FDF766FF331818B335581D445D
:103010007B68544ACDE904234FF000090A21009847
:10302000FFF7DAFF0368994580F099804946FFF77A
:1030300099FE04218046FDF74DFF68B158F8006005
:103040002B68B868B34209D847493246FDF7F0FE0D
:10305000012324E00546DBE70646F1E72B1D03EBE1
:10306000860A53F826309A44024604F1240359464E
:103070005046FEF70FF9B0B100905046BC6807F01B
:10308000E2F9832898BF394A009B94BF52F8202068
:10309000374A384900932046FDF7CAFE009B184680
:1030A00007B0BDE8F08F626A1AB932463249B86893
:1030B000CCE792F814A00390BAF1200F4FF00E0164
:1030C000404622D1FFF77EFED8B90026B24606213F
:1030D0004046FFF799FE082101904046FFF794FE15
:1030E00024228046002120461AF07AF9019BE661ED
:1030F000C4E90038039B09F10109C4E9053A283401
:103100008CE700F1040A0668E1E7FFF75BFE50B1C7
:10311000BAF1830F98BF154BB86894BF53F82A20B3
:10312000134A164992E7DBF800305146DB695846EE
:103130009847064650B9BAF1830F98BF0B4BB86851
:1031400094BF53F82A200A4A0D497FE703AB04AA2B
:10315000B9684046B04703460028B6D09FE7002331
:103160009DE700BF8C7E0300BF7C030070690300F5
:1031700074A40300E97C0300167D0300377D03007F
:103180007D7D030070B516460446FFF737FC0A2123
:10319000FFF722FF656801682B6828204143DB6840
:1031A00004222846984728B90449A068FDF740FE44
:1031B000012070BD30600020FBE700BF3F7C0300B2
:1031C00010B50446FDF786FE231808B120581844B0
:1031D00010BD2DE9F041044610461F468846FFF712
:1031E000DCFB06999DF81C50FFF772FD0C2106468A
:1031F0004046FFF7E5FFA36806930797034632466C
:1032000029466068BDE8F041FFF708BE2DE9F04FA0
:1032100085B08A4691460546FFF7F0FB0390FFF71D
:10322000BCFBD0F8008068680C26036806FB08F435
:10323000DB68042221469847074640B914492246D4
:10324000A868FDF7F5FD012005B0BDE8F08F00246A
:10325000444519D00398FFF7A0FB2146FFF738FD3E
:103260000C2183465046FFF7ABFF06FB0473009327
:103270000246AB6868685946FFF786FE10B12246E1
:103280000449DDE70134E3E7C9F800700020DBE71B
:10329000A37B0300EA7B03002DE9F04F97B00446BF
:1032A0001046894617460993FFF777FB22690368A2
:1032B0006068D31818260693734303930368039931
:1032C0001B6904229847064648B9039AB949A06881
:1032D000FDF7AEFD0121084617B0BDE8F08F384676
:1032E000FFF75BFB03680493236907931021A3682E
:1032F00005934846FDF7EEFD09EB0001002841D09B
:1033000059F800208B1873D08A5808924FF0000AA1
:1033100003F10408D346089B5B4534D0454604219D
:103320002A6815442846FDF7D5FD08F104082A1837
:1033300008B12858104417229F4904301AF0AEFCF7
:10334000E8B90C214846FFF73BFF06218246284694
:10335000FDF7C0FD88B129585046FFF71BFD042139
:10336000FFF730FD049BC268934200F1100A06D0BB
:1033700092490598FDF75CFDACE70146ECE70BF1DF
:10338000010BC8E78246DDF824B0B146B0460025FF
:103390004FF0FF32049B0892AB422ED04146C8F852
:1033A00004B05846FFF785FA0146002893D1089AE1
:1033B000DBF80000C8E9022258B93846FFF7EDFAF9
:1033C0002946FFF785FCFFF7DDFA089A80F0010136
:1033D000C9B288F81410BAF1000F0BD05AF82510B2
:1033E000C8F81010013508F118080BF10C0BD1E7E3
:1033F0009A46C8E7C8F81020F4E74FF0000B4FF0EA
:10340000180AD84606213846FFF7FEFC03685B45DC
:1034100009D95946FFF746FC0AFB00600BF1010B86
:10342000C0F80880EEE74FF0000B4FF0180A0821B3
:103430003846FFF7E9FC0A2104903846FFF7CCFD37
:10344000049B026802F1FF381A685A4525D959468B
:103450001846FFF727FC0AFB00600BF1010BC0F8D0
:103460000C80E4E74FF0000A08215846FFF7CCFC37
:10347000026852450FD95146FFF714FC182303FB8D
:1034800000608268531C01D0904501DAC0F80880C2
:103490000AF1010AE8E708F1FF38B8F1000F20DB74
:1034A0000A213846FFF798FD4146FFF75BFC4FF0D5
:1034B000000A834606215846FFF7A6FC02685245DB
:1034C000D0D95146FFF7EEFB182303FB0060C2681A
:1034D000511C01D0904501DDC0F80C800AF1010AB1
:1034E000E8E733460022954274D0D968481C08D1D9
:1034F000187D30B100919B6831490598FDF798FC23
:10350000E8E601321833EEE71021606800F0A2FD12
:1035100005466068036829461B69102298470146E2
:1035200058B9A168274B019340F233430093264AD0
:10353000264B0846FDF78AFCCCE62A460BA803F08A
:1035400027FCD4F8088035460027069BBB4268D08C
:103550002B7D13B901371835F7E710212868FFF7DD
:103560004BF92B69591C02460FD1EB680093AB68ED
:1035700041460BA803F0CEFB01460028EAD00BA879
:10358000039103F0BDFB0399A5E60193EB6800935B
:10359000AB6841460BA803F017FCEDE70BA803F05E
:1035A00012FD0B4902462B463846FDF741FC01212E
:1035B000E5E700BF9779030088780300D879030016
:1035C000237A0300F87A03007F680300867A0300F9
:1035D000117B03002046FFF7F9FA6FF0070202FBA8
:1035E0000500079A209918232A4403FB0563964691
:1035F0004FF0FF3C0127AE4503F1180384D950F882
:10360000352043F8182C00EBC50243F8141C52680F
:1036100043F808CC43E9042203F8047C0135043163
:10362000E9E7606803685B6998471021606800F00B
:1036300011FD05460BA803F0C6FCA842A768ADD84B
:10364000606800F005FD039B80461E4400254FF096
:10365000FF3A4E4516D099F8143083B139460AAB7B
:103660002A460BA8CDF828A003F0CAFC0146002882
:1036700085D10A9BD9F8042043441360013509F130
:103680001809E6E70BA803F09EFC6369834200D2A9
:10369000606160686169036810229B689847014611
:1036A0006DE700BF00B5C1B0134668460A464FF447
:1036B000807100F0F3FA684600F0DAFC034800F08D
:1036C000D7FC002041B05DF804FB00BF47A8030011
:1036D0004369202B01D180697047DBB2832B9ABFED
:1036E000024A52F823000248704700BF7069030085
:1036F00074A40300C36818680368DB681847C368CC
:103700001B6953F82100704730B4C468206803680F
:103710005D680B46AC46D4E9021230BC6047C36812
:10372000DB680C2000FB01307047C3681868FFF7A6
:1037300057BA0EB403B5C368586803AA036852F8B1
:10374000041B01929B68984702B05DF804EB03B03C
:10375000704710B50446006818B1036861681B69BA
:103760009847204610BD000070B5456804460E46D7
:1037700028460821FDF7AEFB2A18E8B12B58D118CE
:10378000D258012A07D00D49E068FDF751FB01230B
:1037900084F86D3070BD0B1D496862630B4423676C
:1037A00004F17C03E361064B6362064B2366064B20
:1037B000636666640023EBE70368FFDECE780300F0
:1037C00033370100093701001F3701002DE9F041AF
:1037D000079F002504469846C0E90051C0E902272A
:1037E0000E4658222946103019F0FAFD3A4606993D
:1037F0004046FFF7F1F8012384F86D30E368A066D6
:10380000C4E91F0384F86C502046C4E91C55A56721
:10381000C4E92165C4E92355C4F894500899FFF719
:10382000A3FF2046BDE8F0812DE9F74307460026B7
:103830004FF00C093C6F04212046FDF74BFB21188B
:10384000002850D022588B188A58964246D204330A
:1038500003EB860553F826301D440E212846FDF75C
:1038600039FB002834D02B5C93B3786F09FB06F842
:1038700001A94044FFF71DF8044680BB06212846F5
:10388000FDF728FB30B32B56092B25D10C212846F8
:10389000FDF720FB2B1890B12C581C440A21204620
:1038A000FDF718FB2218F0B12358D118D35843B9AB
:1038B0000E4B0F4A0F484FF4837118F0C3F80446BB
:1038C000ECE749687B6F019A53F8080019F088FD0E
:1038D0000136AFE70146F5E72146F3E7002420462D
:1038E00003B0BDE8F0830368FFDE00BFF67D030090
:1038F0007E850300017E030070B50D460446062157
:10390000006FFFF781FA03689D4206D32A461749E4
:10391000E068FDF78DFA002070BDADB11449E06894
:10392000FDF786FAA66E206F0621FFF76DFA29468D
:10393000FFF7B8F93368626F1D6861680346AC46EB
:103940003046BDE870406047D4F8901059B9A56E74
:10395000FFF7A8F92B68626F1E6861680346284666
:10396000B047C4F89000D4F89000D5E7D5830300A1
:103970000084030070B50D4604460821006FFFF770
:1039800043FA03689D4206D32A461749E068FDF7CB
:103990004FFA002070BDADB11449E068FDF748FA58
:1039A000A66E206F0821FFF72FFA2946FFF77AF954
:1039B0003368626F1D6861680346AC463046BDE8F7
:1039C00070406047D4F8941059B9A56EFFF76AF9B2
:1039D0002B68626F1E68616803462846B047C4F8CA
:1039E0009400D4F89400D5E7D9840300058503003A
:1039F000F8B503680446B3B10025282600F1100786
:103A00000A21206FFFF7E8FA0368AB420BD923685D
:103A100006FB05335A6A22B1526812B11969384659
:103A200090470135ECE72046F8BD00002DE9F34151
:103A300000F174030093D0E9011203460446806E3E
:103A4000FFF790F8054648B13D49E068FDF7F0F909
:103A5000012084F86D0002B0BDE8F081266F636F2D
:103A6000C4F8883004213046FDF734FA32180028B3
:103A700064D03358D3582361C4E91455314BA3643F
:103A800028270A21206FFFF7A7FA0368AB4212D953
:103A9000266807FB0566736A71695A691B68202AE4
:103AA0000CBFD6E9061200221BB104F110009847A2
:103AB00030610135E5E7244B23650025282704F113
:103AC00010080A21206FFFF787FA0368AB421BD961
:103AD000216807FB05114E6AB3687BB140469847E1
:103AE000014658B13046FFF7F3FD2B4600910246E0
:103AF0001649E068FDF79CF90120ACE72946A06E65
:103B0000FFF79CF80135DCE70023A3642365104B25
:103B10006365626F6168A06E04F17803FEF78AFF47
:103B2000002898D1A36FC4F88C302046FFF77CFEA4
:103B3000002890D1012384F86C308CE70368FFDE05
:103B40007C830300F53601002B3701009F830300BF
:103B5000FF3601002DE9F04F90F86D3087B0044634
:103B600043B13149C068FDF763F90125284607B024
:103B7000BDE8F08F90F86C30002B46D000264FF057
:103B8000280A4FF000084FF000090A21206FFFF7C4
:103B900023FA03689E4245D225680AFB06556F6AE0
:103BA000FB68002B3CD03846FFF792FDD4F844B0B8
:103BB000CDF810B0002301460593BBF1000F0AD0E9
:103BC000DBF80020CDE90289CDE90063584693680F
:103BD0000222984705902946FB6804F11000984797
:103BE0000546A06E03689B689847012D13D138469F
:103BF000FFF76EFD0095024633460C49E068FDF77D
:103C000017F904A8FFF7A5FDB0E7FFF70FFF05467A
:103C10000028B3D0AAE7002DF3D104A8FFF799FD3F
:103C20000136B2E70025A1E778840300A5840300EC
:103C300030B50446234601341D78002DFAD10139F0
:103C40000844013A12F8011F21B1834202D203F85D
:103C5000011BF7E700221A70184630BD30B5034645
:103C60000C46B3FBF2F502FB1530C3B2092894BF32
:103C7000303357332046DBB200F8013B2B464DB9B9
:103C80006570A14208D20B78227801F8012B04F864
:103C90000139F6E70446E4E730BD00002DE9F04FB6
:103CA00095B09046009003911E4601F1FF39002522
:103CB000009A98F8003054198BB34D452FDA252B14
:103CC00008F1010240F0188198F80130662B5AD0B3
:103CD00006D8252B00F00E81642B1CD09046E7E718
:103CE000752B32D0782B39D0732BF7D1039A3368E8
:103CF000501B311D013B04EB5000009A8442A4EBA1
:103D0000020500F0FC8013F8012F002A00F0F78074
:103D100004F8012BF1E7A9EB05030A2B01DC681C71
:103D200022E030680028B8BF2D2306F10407BDBF8C
:103D3000611C2370404221460A22FFF78FFF001BBF
:103D4000054408F102023E46C8E7A9EB05030A2B29
:103D5000E5DD371D0A2221463068EEE7A9EB0502B2
:103D6000092A05F1010004DC0023237015B0BDE829
:103D7000F08F4FF030022270009A0235135454191C
:103D8000371D1022E7E7A9EB050307EE903AF8EE9E
:103D9000E77AB2EE0C7AF4EEC77AF1EE10FABED4FE
:103DA000F31D23F00703D3E9000103F1080615F022
:103DB000A1FBC0F3C7530028A3F17F0A0193234658
:103DC000BCBF2D2203F8012B0022BAF1800F04F1B1
:103DD0002F0BC0F3160E1A7010D1ABEB0301BEF11E
:103DE000000F09D1484A1846FFF722FF07463C1B3F
:103DF000254408F1020271E7444AF4E7444A04AF5B
:103E000051681068BC46ACE80300424908328A4257
:103E10006746F5D110681279CCF800008CF80420C0
:103E20007046002204A9895601322EFA01F10D2AAA
:103E30000844F7D131221A702E225A709F1C00229A
:103E40009A70ABEB0702072A0292D0DD3A4608339C
:103E50004FF0300102F8011F9342F9D10A2208A95C
:103E6000FFF7FCFE08AA02993846FFF7E1FEC31BE4
:103E70004FF03002D3F10701027012D00246A0EBDE
:103E8000020C9C4508DA12F801CD02F801C04FF08F
:103E9000300C82F800C0F2E723EAE373C3F10703B2
:103EA000184410F8012C302A00F1FF3301D1BB4235
:103EB0001ED80023ABEB00010370174AFFF7B8FED2
:103EC000BAF1000FBFBF2D238DF82030019BC3F145
:103ED0007F0A0746ABEB000BB4BF0DF1210108A927
:103EE0000A225046FFF7BAFE08AA594638467BE731
:103EF0001846D6E708F1020201352370EEE608F114
:103F000002020E46EAE600BF6386030067860300EE
:103F1000568603005E8603006B860300034610B5D9
:103F200053F8044B00220120944204DD53F8041B93
:103F300001324843F8E710BD704703698361704759
:103F400010B51C2104460FF077F9204610BD000083
:103F500037B505460C4680691146FEF743FC6B6990
:103F60001B1AA34209D2E21A009205496868224648
:103F7000FCF75EFF002003B030BD0444AC61FAE7FB
:103F80006F86030037B5044640690D46401B114655
:103F9000FEF72EFC236983420AD91B1A00932A4696
:103FA000EB1A04496068FCF743FF002003B030BD02
:103FB0006061FBE7B886030037B583690D46016988
:103FC0009942044606D00E494068FCF731FF0120B3
:103FD00003B030BD11468068FEF704FC63691B1A0C
:103FE0009D4207D9EA1A0092064960682A46FCF702
:103FF0001FFFECE728442061A0610020E8E700BF34
:10400000018703005687030010B50A4488B00F4C9F
:104010000791CDE90312CDE905120422CDE9014053
:104020001C210DEB0200FFF7ADFF60B1029B436066
:10403000039B8360049BC360059B0361069B4361F4
:10404000079B0460836108B010BD00BFA087030018
:104050008068704770B5044680690E46FEF7C2FB63
:10406000314605466069FEF7C3FB401B70BD00008A
:1040700038B5084C2378054633B94FF41651064835
:1040800007F03CF90123237029460348BDE8384076
:1040900008F04BBC188800205C8E00200368052BBC
:1040A00010B5044603DD406808B10FF0C7F820469C
:1040B00010BD000022EAE273002A00FA03F0D4BF28
:1040C0005242002288422DE9304832D101F10043AA
:1040D0005C425C4180FB0101002871F100031B4B35
:1040E000A8BF4FF080436CBB10EB030B41EBE37CAC
:1040F000BBF1000F7CF1000306DA6FF000440025ED
:104100001BEB040B4CEB050C4FEADB7343EA4C034F
:104110001F2A10DC012191400139481001EA0304F3
:1041200000EBD37013418442D4BF1846581CBDE83D
:1041300030880024CEE7064B064A074840F2671154
:1041400017F080FC6FF00043E2E700BF010000C001
:10415000B88703003C880300C787030070B5044696
:1041600011B90160204670BD8D682B680360052B76
:104170004FEA830608DD09488342D4BF30464FF03A
:10418000FF300FF043F860602368052BCCBF6068F8
:10419000201D3246291D19F025F8E3E7FEFFFF1F19
:1041A0000368052BC7BF436853F8210000EB81006B
:1041B0004068704701EB8202436D516818470968F7
:1041C000FFF7F8BF70B5044609B14D681DB900236B
:1041D0002360204670BD2B680360052B4FEA8306E1
:1041E00008DD09488342D4BF30464FF0FF300FF05E
:1041F0000DF860602368052BCCBF6068201D324637
:10420000291D18F0EFFFE4E7FEFFFF1F10B504685B
:10421000052CCBBF406800EB810050F821104168AD
:1042200010680528CBBF526802EB830252F82300C6
:1042300050688842A8BF084610BD30B50568052DF6
:10424000CCBF4368031D00220120AA4207DA8A423C
:1042500014BF53F82240012460430132F5E730BD1A
:10426000884230B51DD100F100435C425C4180FBC7
:104270000123002A73F100010C49A8BF4FF08041CF
:104280008CB9541843EBE175002C75F1000304DA86
:104290006FF00040002124184D41E00F40EA450036
:1042A00030BD0024E3E76FF00040F9E7010000C0F3
:1042B000002908B506DA0D4B0D4A4FF4B3710D48CD
:1042C00017F0C0FB1F2904DD0B4B094A40F26711B0
:1042D000F5E701238B40013B03EA00025B1003EB8F
:1042E000D07308419A42C8BF013008BD96880300C8
:1042F000A4880300C7870300B887030008B500211E
:10430000FFF7D6FF08BD00006FF000422DE9F84F1F
:1043100014184FF0000343EBE0756B1C05BFB4F1BC
:10432000FF3F264601262F4618BF0027A4197D41CE
:10433000EB0FE01845F100014F104FEA30064FF047
:104340005A30FFF7DBFF04463D48DFF8F890FFF7EF
:10435000D5FF01463046FFF783FFB04604440325EE
:104360006FF00046002721464046FFF779FFC0F175
:1043700000512046FFF774FFB0F1005F51DA484565
:104380004FF0FF314FF0000CA8BF00214FEAE07B57
:1043900082004FEA8B0343EA9073B2F1004F73F14E
:1043A000FF3042DB964277EB0300B8BF6FF000426C
:1043B0006FEA0C031A402CF0004CCB4382EA0C024B
:1043C0001A4001F000414A40013D1444CBD1B4F100
:1043D000804F2DDAB4F1404F4FF0FF302946C8BF6F
:1043E0000020E317261943EB0307B6F1004F77F1DE
:1043F000FF33224620DB6FF000440025B44275EB0A
:104400000703ACBF32466FF00042CB431A4021F0A5
:104410000041C3434A401A4000F000405040BDE80C
:10442000F88F4FF0FF3C0021B0E74FF00042BFE7AC
:104430004FF0FF312846D4E74FF00042E5E700BFD8
:10444000C4C3C3C3010000E008B5FFF709FF08BDFE
:104450002DE9F04104461448FFF750FF0646134883
:10446000FFF74CFF04F18054804621462046FFF7B9
:10447000EBFF21460546FFF7E7FF2946074628469A
:10448000FFF7E2FF0221FFF713FF41463844FFF731
:10449000DBFF01212844FFF70BFF21183046FFF70F
:1044A000D3FF3044BDE8F08194A8F570ABAAAA2AE6
:1044B0000A68436D73B50E465168044698477268A2
:1044C000636D516805462046984701A90646287A3B
:1044D000FEF798F9044650B96868FFF71FFD019B85
:1044E0002A685843336801909A4203D10024204639
:1044F00002B070BD2046019B8342F7D92B681A5C3D
:1045000033681A540130F6E72DE9F043002285B0F4
:1045100004460F46FDF74AFF064658B9454B656904
:1045200000932323444A45492046A847012005B06B
:10453000BDE8F083002239462046FDF748FF0546D6
:1045400020B93F4B009365692523EBE7D6F808C0F7
:104550005CF8049B4FF0000E01220023F1450CDDB6
:104560005CF8048B4046C117514308FB0311A2FBC2
:1045700008230B440EF1010EF0E73B68A9681B68A5
:10458000012B05D10B68012B02D14B6803B90B60DD
:104590008C464FF0FF305CF8048B01230027B845B0
:1045A0001ADD5CF804EBBEF1FF3F0FD1B0F1FF3F25
:1045B00010D0244B0193CDE9020E234B6569009383
:1045C0003A231D4A21492046A847AFE70EFB03F3D3
:1045D0000137E4E73846FBE7471C1CBF01EB8001CD
:1045E00092FBF3F7307818BF4F60297818BF7B43F0
:1045F000814212D06669FCF70FFC07462878FCF769
:104600000BFC134B0193134B0093CDE90270452330
:10461000094A11492046B04788E79A4208D0CDE9B7
:1046200002230E4B01930E4B009365694623C8E7A6
:1046300000207CE792890300208903007F68030043
:10464000A3890300B5890300B88903002E7703000E
:10465000DE890300EB890300C4890300F7890300A6
:104660000B8A03000B68F0B51B68013B012B85B07A
:1046700005460C4609D9194B00934469184A194953
:104680004B23A047012005B0F0BD4B681E68012EEA
:104690000CD00124CDE90264134B0193134B00931A
:1046A00045690F4A12494C23A847EBE7FFF72CFF57
:1046B0000028E8D0214628466F69FFF725FF002330
:1046C000CDE902030B4B01930B4B009328464D237E
:1046D000034A0749B8473046D5E700BF1E8A0300A2
:1046E000208903007F6803002CAE03004B8A03007F
:1046F0002E7703005C8A0300668A030070B5054DBF
:10470000064604460FCD0FC495E80F0084E80F005D
:10471000304670BD008903002DE9F84340F07F4426
:1047200005466001FFF794FE81464248FFF7E6FD2B
:1047300001464846641BFFF787FEC4F30067C7F1D4
:10474000000800EA08083C48FFF7D8FD013F07EAE7
:10475000090788EA070701463846FFF775FEC4F3E4
:104760004068C8F1000900EA09093448FFF7C6FDAE
:1047700008F1FF3808EA070889EA080801464046B8
:10478000FFF762FEC4F38069C9F1000707402C48B7
:10479000FFF7B4FD09F1FF3909EA080987EA0909B9
:1047A00001464846FFF750FEC4F3C067C7F1000852
:1047B00000EA08082348FFF7A1FD013F07EA0907BF
:1047C00088EA070701463846FFF73EFEC4F3007645
:1047D000C6F1000800EA080006F1FF3808EA0708F9
:1047E00080EA08081848FFF789FD01464046FFF7B0
:1047F0002BFEC4F340777E42013F064007EA0800E3
:104800004640F220FFF77AFD01463046FFF71CFED6
:10481000C4F3807463421840013CB5FA85F3344018
:104820005B094440581E5B42204023F0004358403F
:10483000BDE8F8837BBEAF63F2CBA24D6CAC162F04
:10484000A4AA5211B72A580211FE0A00012803D067
:10485000022806D0002070471944013991FBF3F07B
:1048600070470098013A504319440130091AF5E79E
:104870003821836B18472DE9F04FA1B01C46B0F9E1
:104880000A300893B0F90C300993B0F90E300A934E
:10489000B0F910300B93B0F902300C93B0F904303A
:1048A0000D93B0F91230019343691093C3691193CA
:1048B000836ADDF8BCA00E93C36A0F930023CDE991
:1048C0001B12204619465246FFF7A0FC0121129008
:1048D0002046FFF765FC022113902046FFF760FC9D
:1048E000032114902046FFF75BFC012115902B98C3
:1048F000FFF756FC022116902B98FFF751FC01217F
:1049000017905046FFF74CFC022118905046FFF7D5
:1049100047FC019B19909B0003934FF00009129BE9
:10492000994580F2B0800D9B5B4207934FF0000BDE
:10493000189B9B4580F2A4800C9B5B42069300234E
:104940000093009B199A934280F293801B9B0293E1
:104950001C9B049300262E9B0593B046159B9845FF
:104960007FDA2A9B434400251F93019B9D4268DA0E
:104970002C9AAB19A9191A9300200A44079B1E927E
:104980008446169A944532DA069A4FF0000E17992B
:104990008E4527DA002A20DB149991421DDD002B79
:1049A0001BDB1399994218DDA168E76801FB093107
:1049B00007FB0121276979431F9F7956109F3944CE
:1049C0001D912B992B9FC9683F6901FB0CE179432D
:1049D0001E9F79561D9F01FB07000A990EF1010EDB
:1049E0000A44D4E70B9A0CF1010C1344C9E72E9B3F
:1049F0001BB1059B53F825301844049B53F8252020
:104A0000029B53F82510FFF755FBDAF80830DAF867
:104A10000C20009903FB09B302FB0313DAF8102002
:104A2000309902FB0313119A10440E9A9042B8BFBA
:104A300010460F9A9042A8BF10461A9A0135985412
:104A400093E7DDE9023213440293049B1344049379
:104A50001346059A1A44019B059208F101081E4469
:104A60007CE7009B089A01330093069B134406934E
:104A700067E7079B099A13440BF1010B079357E76C
:104A800009F101094BE721B0BDE8F08F2DE9F04FA6
:104A90001F4613694D69D1B016465B4280460993A3
:104AA000886992690A92D6E9003E0128D1E901C2DB
:104AB000DDF868B15C9C3D903C950B93C968D6E9E4
:104AC000099A40F09680012D40F09380099B359320
:104AD0000A9B36930B9B3A93CDE938C27F236FF044
:104AE0007F02379123A85946CDF8ECE0CDE93E236B
:104AF000CDE90D9AFFF766FB394629A8FFF762FB5F
:104B000021462FA8FFF75EFB5B9940A8FFF75AFBF1
:104B1000002319462FAA29A8FFF778FB032319467B
:104B20002FAA814623A8FFF771FB2946824629A8B0
:104B3000CDF84490FFF734FB0221129029A8FFF72B
:104B40002FFB0321139029A8FFF72AFB00211490C3
:104B500023A8FFF725FB2946159023A8FFF720FB84
:104B60000221169023A8FFF71BFB2946CDE9170A5F
:104B70002FA8CDE91955CDE91B5ACDF87490FFF750
:104B80000FFB02211E902FA8FFF70AFB716B002379
:104B90009942CDE91F0ACDE90F3304DBD8F8443040
:104BA000404698470F905B993B68DBF80020096806
:104BB00004B1246806941DA8CDE9041019A9CDE913
:104BC000022115AA35A9CDE900320FA811AB0DAA13
:104BD00003F0D0FD40A8FFF761FA2FA8FFF75EFAB7
:104BE00029A8FFF75BFA23A8FFF758FA51B0BDE8F0
:104BF000F08FBDF82C30ADF80231099B45930023AE
:104C000046930A9B47936FF07F030126ADF80E5140
:104C1000ADF81001ADF812114A9339467F232FA841
:104C200029ADADF804E1ADF80AC1ADF80C214B9304
:104C30008DF80061FFF7C6FA23AE59462846D7F82B
:104C40000080FFF7BFFA5B99DBF800B03046FFF752
:104C5000B9FA5B9B1DAF1B68099321463846FFF7E5
:104C6000B1FA099B04B12468CDF800805246494648
:104C7000CDE9036340A82FABCDE90574CDE9015B15
:104C8000FFF7F9FD3846FFF709FA3046FFF706FA55
:104C90002846FFF703FA2FA8A6E700002DE9F04FFA
:104CA0002DED028B99B09B46B0F90A300893B0F90C
:104CB0000C300993B0F90E300A93B0F910300B9311
:104CC000B0F902300C93B0F90430279D0D93B0F980
:104CD000123003930C4600231946169290ED0C8A6D
:104CE000D0ED0D8A2A462046FFF790FA01210E905A
:104CF0002046FFF755FA02210F902046FFF750FAA1
:104D0000032110902046FFF74BFA012111905846DD
:104D1000FFF746FA022112905846FFF741FA0121A7
:104D200013902846FFF73CFA022114902846FFF71B
:104D300037FADFED5F6A15904FF000090E9B994539
:104D400080F2B0800D9B5B42069300230193019B90
:104D5000149A934280F2A3800C9B5B4205934FF020
:104D6000000A159B9A4580F29280269B04930023AB
:104D700002939C46119B9C4580F282800021039BFC
:104D8000994271DA029B0698DFED497ACB180793B6
:104D90004FF0000E129B9E453ADA059E4FF0000838
:104DA000139B98452FDA002E28DB109BB34225DD9C
:104DB000002823DB0F9B834220DDA368E26803FB0E
:104DC000090302FB0363226902FB03C2169B03EB88
:104DD00082031793DBF81030DBF80C201F46079B8B
:104DE00002FB0E8207FB0232249B03EB8202179B1D
:104DF00092ED007A93ED006AE6EE077A0A9B08F1DD
:104E000001081E44CCE70B9B0EF1010E1844C1E7CC
:104E1000269B33B3049B03EB810393ED007AAB68CD
:104E2000019A079877EE877A03FB0923EA68F4EE84
:104E3000487A02FB03A3F1EE10FA2A6948BFF0EEAC
:104E4000487A02FB0302F4EE678A289BF1EE10FA1F
:104E500003EB820248BFF0EE687AC2ED007A0131BE
:104E60008DE7B0EE667ADAE7DDE9032303EB820330
:104E700004931346029A1A440CF1010C029279E74A
:104E8000059B089A13440AF1010A059369E7019BFF
:104E9000099A01330193069B1344069357E709F1DE
:104EA00001094BE719B0BDEC028BBDE8F08F00BFE4
:104EB000000000002DE9F04FD1E90453BFB00022FB
:104EC0000C9304460F46FDF771FA012283463946DA
:104ED0002046FDF76BFA00220B9039462046FDF77D
:104EE00076FA9BF800301293DBF808301190DA68FC
:104EF0009B680E930B9B0D929B68DA680F929A68E1
:104F00001092129A092A4BD10B9A92F83060012E16
:104F10000ED0A54B01930125A44B0093CDE902656A
:104F200081236669A24AA3492046B04701260AE0C8
:104F30000B9A526B5AB9A04B6569009387239C4A20
:104F40009E492046A84730463FB0BDE8F08F106824
:104F500020B99B4B009365698823F0E7516821B91C
:104F6000984B009365698923E9E70268012A07D015
:104F70001869824204D0944B009365698D23DEE763
:104F800009688A420CD0914B0193914B0093CDE973
:104F900002216569864A87498F232046A847C5E7CD
:104FA0001E69A36BB600314620469847A36B686222
:104FB0003146204698473B68A8621B68023B012B9C
:104FC00008D9844B00936569794A7C494923204676
:104FD000A847ABE77B68D3F80080B8F1010F0DD08C
:104FE0007D4B019301267D4B0093CDE902866569D7
:104FF0006F4A70494A232046A847A4E74FF0FF3381
:105000006B630C9B0F9A1E780D99D3E9019A304679
:105010004B46CDF80080FFF719FC53461390CDF8AE
:1050200000803046109A0E99FFF710FC109B013853
:105030000AFB003A0E9BAAEB030A139B5E1E0F9B12
:1050400009FB06390D9BA9EB030929EAE9792AEA4C
:10505000EA7A4FEA69032B604FEA6A036B60129B9E
:1050600009F001060AF00100012BAE60E8600ED1E4
:10507000DBF810302B610B9B1B696B61119B1B696B
:10508000AB619BF80030092B3AD000265BE7002289
:1050900039462046FDF78AF94246064639462046FB
:1050A000FDF784F90222804639462046FDF7A0F933
:1050B0000022814639462046FDF789F9D8F80830A4
:1050C0001B690893AB6A07936B6A069305F130037B
:1050D000059305F12C03049305F12003039305F1D7
:1050E0001C0302930C9B1033CDE9000331464B4661
:1050F00042462046FDF770FA06460028B8D022E75F
:10510000594621A8FFF72AF8119927A8FFF726F892
:105110000B992DA8FFF722F80023194627AA21A8EA
:10512000FFF774F803232DAA0746194627A8FFF7AF
:105130006DF80E9B169306460D9B1793032121A82D
:105140001597FFF72DF8109B1A930F9B18900121CC
:1051500027A8CDE91B3619911D97FFF721F80221E9
:105160001E9027A8FFF71CF86B6839932B683893BB
:10517000CDE91F0615A91DAB19AA33A803F02FFB13
:10518000011E2DDD236C05F13402204698470646AA
:1051900048B32DA8FEF782FF27A8FEF77FFF21A8BE
:1051A000FEF77CFFCFE600BF487703007B77030064
:1051B000C08A03002E770300957703007F68030001
:1051C000A9770300428B0300628B0300E48B03008A
:1051D000247803000A8C03002CAE03002E8C0300FD
:1051E0004FF0FF336B632DA8FEF758FF27A8FEF79B
:1051F00055FF21A8FEF752FF47E700BF70B5054DE8
:10520000064604460FCD0FC495E80F0084E80F0052
:10521000304670BD848A03002DE9F04FA1B09B4653
:10522000B0F90A300793B0F90C300893B0F90E309A
:105230000993B0F910300A93B0F902300B93B0F92A
:1052400004300C93B0F912300393836A0D93C36A50
:105250000E9343690F9383691093C3691193036A93
:10526000DDF8B4A01293436A13930C460023194649
:105270001C9220465246FEF7C9FF01211490204699
:10528000FEF78EFF022115902046FEF789FF0321CD
:1052900016902046FEF784FF012117905846FEF72E
:1052A0007FFF022118905846FEF77AFF01211990DE
:1052B0005046FEF775FF02211A905046FEF770FF28
:1052C0004FF000091B90149B994580F2A6800C9B1F
:1052D0005B42059300230093009B1A9A934280F24D
:1052E00099800B9B5B42049300230193019B1B9AC3
:1052F000934280F287800023DDF8B08002931F463E
:10530000179B9F4276DA1C9B3B4400251F93039B0F
:105310009D4267DA029B2A9AEB1806930699059B31
:1053200000200A4484461E92189A944534DA049A5E
:105330004FF0000E19998E4529DA002A22DB1699C2
:1053400091421FDD002B1DDB159999421ADDA168E2
:10535000E66801FB093106FB0121266971431F9EA6
:10536000715C0F9E31441D91DBF80C10DBF810606E
:1053700001FB0CE171431E9E715C109E31441D9E29
:1053800001FB060009990EF1010E0A44D2E70A9AC0
:105390000CF1010C1344C7E72C9B13B158F82530CE
:1053A0001844DDE91212FEF785FEDAF80830009A9B
:1053B000019903FB0923DAF80C2002FB0313DAF846
:1053C00010202E9902FB0313119A10440D9A90425B
:1053D000B8BF10460E9A9042A8BF1046069A0135F3
:1053E000985494E7039B029A1A44013708EB830808
:1053F000029285E7019B079A01330193049B1344B2
:10540000049373E7009B089A01330093059B1344B0
:10541000059361E709F1010955E721B0BDE8F08F77
:105420002DE9F04F4A68436D0E46C7B0D1E90489B3
:105430005168834698473268DBF854305168044617
:10544000584698473268DBF854309168054658460C
:10545000984732681368032B074679D1DBF854303C
:10546000D16858469847064695F808A0BAF1030F48
:1054700000F08580BAF1090F74D0BAF1010F40F045
:105480006A8199F81030012B64D0032B67D09FED0F
:10549000B87ADFEDB86A022BF7EE007A18BFF0EEAB
:1054A000477ABFEE007A18BFB0EE667A01238DF816
:1054B000D830D8F80030ADF8DA30D8F80430ADF88C
:1054C000DC30D9F80430ADF8E230D9F80830ADF866
:1054D000E430D9F81430ADF8E630D9F81830ADF82A
:1054E000E8302946D9F80C30ADF8EA301EA88DED29
:1054F000427ACDED437AFEF765FE3946D5F8008055
:1055000024A82AADFEF75EFE314628463F68FEF726
:1055100059FED6F8009030AE21463046FEF752FED6
:1055200004B124680097CDE90364CDE9015924ABA7
:1055300042461EA936A8FFF7B1FB3046FEF7AEFD86
:105540002846FEF7ABFD24A8FEF7A8FD1EA8DAE06A
:10555000002689E7DFED867A9FED877AA6E7F1EEF0
:10556000087AF9E7CDE9016400972B46424649469F
:105570005846FFF78BFA002047B0BDE8F08F0122B4
:10558000D8F81010D8F81430D8F818008DF8D820B2
:10559000D8F80020ADF8DA20D8F80420ADF8DC20E7
:1055A000D9F80420ADF8E220D9F80820ADF8E420BD
:1055B000D9F80C20B9F914C0B9F918B0ADF8EA203F
:1055C0005B42D8F82C2040924942D8F83020ADF800
:1055D000E6C0CDE93B13D8F81C303E93D8F8203014
:1055E000ADF8E8B05B42BCF1010F41923D903F93B2
:1055F00040F08C80BBF1010F40F08880394624A830
:10560000FEF7E0FD594624A8FEF7CAFD02218146B7
:1056100024A8FEF7C5FD294680462AA8FEF7D2FD3C
:1056200059462AA8FEF7BCFD022117902AA8FEF7CA
:10563000B7FD514616902AA8FEF7B2FD21468246D4
:1056400030A8FEF7BFFD594630A8FEF7A9FD02219C
:10565000834630A8FEF7A4FD169A179B3F6817975C
:1056600091B29AB21FFA8AF3BDF9DA7016933B9B96
:1056700018971B93BDF9DC703C9B19971C93BDF9DF
:10568000E2703D9B1A972D68BDF9EAA0BDF9E47060
:10569000BDF9E6C0BDF9E8E036681D931FFA88F849
:1056A0001FFA89F904B124683E9B14933F9B13931E
:1056B000419B1293409B11931D9B0D931C9B0C933C
:1056C0001B9B0797CDE90A631A9B0693199B0593C9
:1056D000189B80B2CDE903A31FFA8BFB179BCDF873
:1056E00040B0CDE908CECDE90E40CDE90189009367
:1056F0002846169B02F040FD30A8FEF7CFFC2AA8F2
:10570000FEF7CCFC24A8FEF7C9FC34E729461EA806
:10571000FEF758FD3946D5F8008024A82AADFEF7DB
:1057200051FD314628463F68FEF74CFDD6F8009003
:1057300030AE21463046FEF745FD04B1246800979F
:10574000CDE90364CDE9015924AB42461EA936A830
:10575000FFF762FDF1E65046DBF81440FBF75CFB17
:105760002B7A064902465846A047012004E700BFAD
:10577000FFFF7F7FFFFF7FFF00000000A48A030080
:105780002421836B184700002DE9F04FC1B01F465C
:105790004A9E4B9C3368814688461546002B00F094
:1057A000A98021462EA8FEF70DFD00212EA8FEF7A8
:1057B000F7FC012183462EA8FEF7F2FC394682460B
:1057C00034A8FEF7FFFC349934A80139FEF7E8FC51
:1057D000294609903AA8FEF7F5FCD8F81830099A3E
:1057E000CDF860B05B422893D8F820302A93D8F8DF
:1057F0001C30CDF89CA05B422993D8F808302B933D
:10580000D8F80C302C93D8F800301493D8F8043022
:105810005B4215930123CDE91933CDE91D33CDE961
:105820001FA3CDE92133CDE925330023CDE91B2288
:10583000CDE923ABCDE91633D8F81410994204DB37
:10584000D9F844304846984716902A683968306835
:10585000002C42D02368069324ABCDE9040320AB8F
:10586000CDE902131CABCDE9002328A918AB14AA7B
:1058700016A802F0BEFF002831D0D9F814802B689A
:105880003A68316804B12468069424A8CDE904106C
:1058900020A9CDE902211CAACDE9003228A918AB24
:1058A00014AA16A802F0A5FF0023CDE90203544B69
:1058B0000193544B544A554900934846CF23C0475F
:1058C0003AA8FEF7EBFB34A8FEF7E8FB2EA8FEF79C
:1058D000E5FB012041B0BDE8F08F2346BBE73AA8C5
:1058E000FEF7DCFB34A8FEF7D9FB2EA8FEF7D6FBAB
:1058F0000020EFE78B690993CB690A930B6A0B933E
:105900000B680C934B685B420D938B680E933AA81F
:10591000CB680F931146FEF755FC394634A82D6825
:10592000FEF750FC3B68109331462EA8FEF74AFC68
:10593000214628A8D6F800B0FEF744FC04B124683C
:10594000002128A8FEF72CFC40AE1190012128A8C8
:10595000FEF726FC56F8307D8246791E3046FEF76B
:105960001FFCC5F1000807464FF00009119B4B458D
:105970003ADD109B0026B2452FDD9E46AC46002046
:105980000CEB080297420EDD1CF9012B12920A99CA
:105990001EF9012B521A13920999129A511A139A4D
:1059A00001FB0200ECE7BBF1000F02D05BF8262000
:1059B0001044DDE90C121293FEF77CFB0B9B18449C
:1059C0000E9B9842B8BF18460F9B9842A8BF184636
:1059D000129BA0553B440136CDE709F1010954441F
:1059E0003D44A8EB0708C1E728A8FEF757FB2EA8FF
:1059F000FEF754FB34A8FEF751FB3AA876E700BF48
:105A0000C58C0300D68C0300428C03002E77030064
:105A10002DE9F04F002295B005460C46D1E9046B04
:105A2000FCF7C4FC0122824621462846FCF7BEFC56
:105A30000222214681462846FCF7DAFC00228046F5
:105A400021462846FCF7C3FC07469AF800003A783E
:105A5000824216D06C69FBF7DFF906463878FBF70F
:105A6000DBF9474B0193474B0093CDE90260692373
:105A7000454A46492846A0470124204615B0BDE8BE
:105A8000F08F99F80030934204D06B694049284662
:105A90009847F1E74FF0FF32012B9BF800B072619D
:105AA0002DD014AB0020002163E906014A46CDE960
:105AB0000073514643462846FCF7CEFC04460028B6
:105AC000DBD1DDE90E0108AB3246FCF77DFB089B1C
:105AD0005B42736006F10C0300933A4606F108033B
